{
  "contractName": "Metadata",
  "abi": [
    {
      "constant": true,
      "inputs": [
        {
          "name": "_tokenId",
          "type": "uint256"
        }
      ],
      "name": "tokenURI",
      "outputs": [
        {
          "name": "_infoUrl",
          "type": "string"
        }
      ],
      "payable": false,
      "stateMutability": "view",
      "type": "function"
    }
  ],
  "bytecode": "0x608060405234801561001057600080fd5b506103f8806100206000396000f300608060405260043610610041576000357c0100000000000000000000000000000000000000000000000000000000900463ffffffff168063c87b56dd14610046575b600080fd5b34801561005257600080fd5b50610071600480360381019080803590602001909291905050506100ec565b6040518080602001828103825283818151815260200191508051906020019080838360005b838110156100b1578082015181840152602081019050610096565b50505050905090810190601f1680156100de5780820380516001836020036101000a031916815260200191505b509250505060405180910390f35b60608060606040805190810160405280601c81526020017f68747470733a2f2f646f6d61696e2e636f6d2f6d657461646174612f00000000815250915061013284610160565b9050610157610140826102b7565b610149846102b7565b6102e590919063ffffffff16565b92505050919050565b606060008060606000808614156101ae576040805190810160405280600181526020017f300000000000000000000000000000000000000000000000000000000000000081525094506102ae565b8593505b6000841415156101d8578280600101935050600a848115156101d057fe5b0493506101b2565b826040519080825280601f01601f19166020018201604052801561020b5781602001602082028038833980820191505090505b5091506001830390505b6000861415156102aa57600a8681151561022b57fe5b066030017f01000000000000000000000000000000000000000000000000000000000000000282828060019003935081518110151561026657fe5b9060200101907effffffffffffffffffffffffffffffffffffffffffffffffffffffffffffff1916908160001a905350600a868115156102a257fe5b049550610215565b8194505b50505050919050565b6102bf6103b2565b600060208301905060408051908101604052808451815260200182815250915050919050565b606080600083600001518560000151016040519080825280601f01601f1916602001820160405280156103275781602001602082028038833980820191505090505b5091506020820190506103438186602001518760000151610367565b61035c8560000151820185602001518660000151610367565b819250505092915050565b60005b60208210151561038f578251845260208401935060208301925060208203915061036a565b6001826020036101000a0390508019835116818551168181178652505050505050565b6040805190810160405280600081526020016000815250905600a165627a7a72305820fee654d32039013a14ebd6f7a556c08b9997938f8de77044284e5415c57dbf490029",
  "source": "pragma solidity ^0.4.20;\n/**\n* Metadata contract is upgradeable and returns metadata about Token\n*/\n\nimport \"./helpers/strings.sol\";\n\ncontract Metadata {\n    using strings for *;\n\n    function tokenURI(uint _tokenId) public view returns (string _infoUrl) {\n        string memory base = \"https://domain.com/metadata/\";\n        string memory id = uint2str(_tokenId);\n        return base.toSlice().concat(id.toSlice());\n    }\n    function uint2str(uint i) internal pure returns (string){\n        if (i == 0) return \"0\";\n        uint j = i;\n        uint length;\n        while (j != 0){\n            length++;\n            j /= 10;\n        }\n        bytes memory bstr = new bytes(length);\n        uint k = length - 1;\n        while (i != 0){\n            bstr[k--] = byte(48 + i % 10);\n            i /= 10;\n        }\n        return string(bstr);\n    }\n}",
  "sourcePath": "/Users/billy/code/workshop/contracts/Metadata.sol",
  "compiler": {
    "name": "solc",
    "version": "0.4.24+commit.e67f0147.Emscripten.clang"
  },
  "schemaVersion": "2.0.1",
  "updatedAt": "2018-12-14T09:44:59.900Z"
}